{"abi":[{"type":"constructor","inputs":[{"name":"_token","type":"address","internalType":"address"}],"stateMutability":"nonpayable"},{"type":"function","name":"CLAIM_DELAY","inputs":[],"outputs":[{"name":"","type":"uint256","internalType":"uint256"}],"stateMutability":"view"},{"type":"function","name":"GRACE_PERIOD","inputs":[],"outputs":[{"name":"","type":"uint256","internalType":"uint256"}],"stateMutability":"view"},{"type":"function","name":"acknowledgeAttendance","inputs":[{"name":"bookingId","type":"uint256","internalType":"uint256"}],"outputs":[],"stateMutability":"nonpayable"},{"type":"function","name":"admin","inputs":[],"outputs":[{"name":"","type":"address","internalType":"address"}],"stateMutability":"view"},{"type":"function","name":"bookSession","inputs":[{"name":"mentor","type":"address","internalType":"address"},{"name":"timestamp","type":"uint256","internalType":"uint256"}],"outputs":[],"stateMutability":"nonpayable"},{"type":"function","name":"bookingCounter","inputs":[],"outputs":[{"name":"","type":"uint256","internalType":"uint256"}],"stateMutability":"view"},{"type":"function","name":"bookings","inputs":[{"name":"","type":"uint256","internalType":"uint256"}],"outputs":[{"name":"mentee","type":"address","internalType":"address"},{"name":"mentor","type":"address","internalType":"address"},{"name":"amount","type":"uint256","internalType":"uint256"},{"name":"sessionTimestamp","type":"uint256","internalType":"uint256"},{"name":"menteeNoShowMarked","type":"bool","internalType":"bool"},{"name":"noShowMarkedAt","type":"uint256","internalType":"uint256"},{"name":"acknowledged","type":"bool","internalType":"bool"},{"name":"payoutDone","type":"bool","internalType":"bool"}],"stateMutability":"view"},{"type":"function","name":"claim","inputs":[{"name":"bookingId","type":"uint256","internalType":"uint256"}],"outputs":[],"stateMutability":"nonpayable"},{"type":"function","name":"mentorFee","inputs":[{"name":"","type":"address","internalType":"address"}],"outputs":[{"name":"","type":"uint256","internalType":"uint256"}],"stateMutability":"view"},{"type":"function","name":"pause","inputs":[],"outputs":[],"stateMutability":"nonpayable"},{"type":"function","name":"paused","inputs":[],"outputs":[{"name":"","type":"bool","internalType":"bool"}],"stateMutability":"view"},{"type":"function","name":"refund","inputs":[{"name":"bookingId","type":"uint256","internalType":"uint256"}],"outputs":[],"stateMutability":"nonpayable"},{"type":"function","name":"setMenteeNoShow","inputs":[{"name":"bookingId","type":"uint256","internalType":"uint256"}],"outputs":[],"stateMutability":"nonpayable"},{"type":"function","name":"setMentorFee","inputs":[{"name":"fee","type":"uint256","internalType":"uint256"}],"outputs":[],"stateMutability":"nonpayable"},{"type":"function","name":"token","inputs":[],"outputs":[{"name":"","type":"address","internalType":"contract IERC20"}],"stateMutability":"view"},{"type":"function","name":"unpause","inputs":[],"outputs":[],"stateMutability":"nonpayable"},{"type":"event","name":"AttendanceAcknowledged","inputs":[{"name":"bookingId","type":"uint256","indexed":true,"internalType":"uint256"}],"anonymous":false},{"type":"event","name":"BookingCreated","inputs":[{"name":"bookingId","type":"uint256","indexed":true,"internalType":"uint256"},{"name":"mentee","type":"address","indexed":true,"internalType":"address"},{"name":"mentor","type":"address","indexed":true,"internalType":"address"},{"name":"amount","type":"uint256","indexed":false,"internalType":"uint256"},{"name":"sessionTimestamp","type":"uint256","indexed":false,"internalType":"uint256"}],"anonymous":false},{"type":"event","name":"MenteeNoShowMarked","inputs":[{"name":"bookingId","type":"uint256","indexed":true,"internalType":"uint256"},{"name":"markedAt","type":"uint256","indexed":false,"internalType":"uint256"}],"anonymous":false},{"type":"event","name":"MentorFeeSet","inputs":[{"name":"mentor","type":"address","indexed":true,"internalType":"address"},{"name":"fee","type":"uint256","indexed":false,"internalType":"uint256"}],"anonymous":false},{"type":"event","name":"Paused","inputs":[{"name":"admin","type":"address","indexed":true,"internalType":"address"}],"anonymous":false},{"type":"event","name":"RefundClaimed","inputs":[{"name":"bookingId","type":"uint256","indexed":true,"internalType":"uint256"},{"name":"mentee","type":"address","indexed":true,"internalType":"address"},{"name":"amount","type":"uint256","indexed":false,"internalType":"uint256"}],"anonymous":false},{"type":"event","name":"StakeClaimedByMentor","inputs":[{"name":"bookingId","type":"uint256","indexed":true,"internalType":"uint256"},{"name":"mentor","type":"address","indexed":true,"internalType":"address"},{"name":"amount","type":"uint256","indexed":false,"internalType":"uint256"}],"anonymous":false},{"type":"event","name":"Unpaused","inputs":[{"name":"admin","type":"address","indexed":true,"internalType":"address"}],"anonymous":false},{"type":"error","name":"AlreadyAcknowledged","inputs":[]},{"type":"error","name":"AlreadyMarkedNoShow","inputs":[]},{"type":"error","name":"AlreadyPaidOut","inputs":[]},{"type":"error","name":"CannotBookSelf","inputs":[]},{"type":"error","name":"CannotMarkNoShowAfterAcknowledge","inputs":[]},{"type":"error","name":"CannotRefundAfterNoShowMarked","inputs":[]},{"type":"error","name":"ClaimNotYetAvailable","inputs":[]},{"type":"error","name":"ContractPaused","inputs":[]},{"type":"error","name":"InvalidTimestamp","inputs":[]},{"type":"error","name":"MentorFeeNotSet","inputs":[]},{"type":"error","name":"NotMarkedAsNoShow","inputs":[]},{"type":"error","name":"OnlyAdmin","inputs":[]},{"type":"error","name":"OnlyMentee","inputs":[]},{"type":"error","name":"OnlyMentor","inputs":[]},{"type":"error","name":"OutsideGracePeriod","inputs":[]},{"type":"error","name":"RefundNotYetAvailable","inputs":[]},{"type":"error","name":"SafeERC20FailedOperation","inputs":[{"name":"token","type":"address","internalType":"address"}]},{"type":"error","name":"SessionNotStarted","inputs":[]}],"bytecode":{"object":"0x60c060405234801561000f575f5ffd5b50604051611b54380380611b54833981810160405281019061003191906100fd565b8073ffffffffffffffffffffffffffffffffffffffff1660808173ffffffffffffffffffffffffffffffffffffffff16815250503373ffffffffffffffffffffffffffffffffffffffff1660a08173ffffffffffffffffffffffffffffffffffffffff168152505050610128565b5f5ffd5b5f73ffffffffffffffffffffffffffffffffffffffff82169050919050565b5f6100cc826100a3565b9050919050565b6100dc816100c2565b81146100e6575f5ffd5b50565b5f815190506100f7816100d3565b92915050565b5f602082840312156101125761011161009f565b5b5f61011f848285016100e9565b91505092915050565b60805160a0516119da61017a5f395f8181610ce301528181610d8001528181610df601528181610e94015261140001525f8181610618015281816109a501528181610c26015261142401526119da5ff3fe608060405234801561000f575f5ffd5b50600436106100fe575f3560e01c80638869fb8811610095578063dc87c71e11610064578063dc87c71e14610263578063e18132c41461027f578063f851a4401461029d578063fc0c546a146102bb576100fe565b80638869fb88146101ef578063a4d52ebc1461020b578063c1a287e214610227578063d287ac4214610245576100fe565b8063379607f5116100d1578063379607f5146101a15780633f4ba83a146101bd5780635c975abb146101c75780638456cb59146101e5576100fe565b806301c7aea4146101025780631dab301e1461011e5780632601878914610155578063278ecde114610185575b5f5ffd5b61011c60048036038101906101179190611673565b6102d9565b005b610138600480360381019061013391906116b1565b6106cb565b60405161014c989796959493929190611714565b60405180910390f35b61016f600480360381019061016a9190611790565b610772565b60405161017c91906117bb565b60405180910390f35b61019f600480360381019061019a91906116b1565b610787565b005b6101bb60048036038101906101b691906116b1565b610a5f565b005b6101c5610ce1565b005b6101cf610de3565b6040516101dc91906117d4565b60405180910390f35b6101ed610df4565b005b610209600480360381019061020491906116b1565b610ef7565b005b610225600480360381019061022091906116b1565b610f8a565b005b61022f61118a565b60405161023c91906117bb565b60405180910390f35b61024d611191565b60405161025a91906117bb565b60405180910390f35b61027d600480360381019061027891906116b1565b611197565b005b6102876113f7565b60405161029491906117bb565b60405180910390f35b6102a56113fe565b6040516102b291906117ed565b60405180910390f35b6102c3611422565b6040516102d09190611861565b60405180910390f35b5f5f9054906101000a900460ff161561031e576040517fab35696f00000000000000000000000000000000000000000000000000000000815260040160405180910390fd5b428111610357576040517fb7d0949700000000000000000000000000000000000000000000000000000000815260040160405180910390fd5b5f60025f8473ffffffffffffffffffffffffffffffffffffffff1673ffffffffffffffffffffffffffffffffffffffff1681526020019081526020015f2054036103cd576040517fda02ab8b00000000000000000000000000000000000000000000000000000000815260040160405180910390fd5b8173ffffffffffffffffffffffffffffffffffffffff163373ffffffffffffffffffffffffffffffffffffffff1603610432576040517fae23d47a00000000000000000000000000000000000000000000000000000000815260040160405180910390fd5b5f60025f8473ffffffffffffffffffffffffffffffffffffffff1673ffffffffffffffffffffffffffffffffffffffff1681526020019081526020015f205490505f60015f8154610482906118a7565b91905081905590506040518061010001604052803373ffffffffffffffffffffffffffffffffffffffff1681526020018573ffffffffffffffffffffffffffffffffffffffff1681526020018381526020018481526020015f151581526020015f81526020015f151581526020015f151581525060035f8381526020019081526020015f205f820151815f015f6101000a81548173ffffffffffffffffffffffffffffffffffffffff021916908373ffffffffffffffffffffffffffffffffffffffff1602179055506020820151816001015f6101000a81548173ffffffffffffffffffffffffffffffffffffffff021916908373ffffffffffffffffffffffffffffffffffffffff16021790555060408201518160020155606082015181600301556080820151816004015f6101000a81548160ff02191690831515021790555060a0820151816005015560c0820151816006015f6101000a81548160ff02191690831515021790555060e08201518160060160016101000a81548160ff02191690831515021790555090505061065d3330847f000000000000000000000000000000000000000000000000000000000000000073ffffffffffffffffffffffffffffffffffffffff16611446909392919063ffffffff16565b8373ffffffffffffffffffffffffffffffffffffffff163373ffffffffffffffffffffffffffffffffffffffff16827fc23071401e914bd8a789a0658c528eb1c2f1e12bfefd148e2c6a0343c87cb4a485876040516106bd9291906118ee565b60405180910390a450505050565b6003602052805f5260405f205f91509050805f015f9054906101000a900473ffffffffffffffffffffffffffffffffffffffff1690806001015f9054906101000a900473ffffffffffffffffffffffffffffffffffffffff1690806002015490806003015490806004015f9054906101000a900460ff1690806005015490806006015f9054906101000a900460ff16908060060160019054906101000a900460ff16905088565b6002602052805f5260405f205f915090505481565b5f60035f8381526020019081526020015f209050805f015f9054906101000a900473ffffffffffffffffffffffffffffffffffffffff1673ffffffffffffffffffffffffffffffffffffffff163373ffffffffffffffffffffffffffffffffffffffff1614610822576040517f5a1410e800000000000000000000000000000000000000000000000000000000815260040160405180910390fd5b8060060160019054906101000a900460ff161561086b576040517f625de58c00000000000000000000000000000000000000000000000000000000815260040160405180910390fd5b806004015f9054906101000a900460ff16156108b3576040517f61f9f61f00000000000000000000000000000000000000000000000000000000815260040160405180910390fd5b80600301544210156108f1576040517f3c2779e500000000000000000000000000000000000000000000000000000000815260040160405180910390fd5b806006015f9054906101000a900460ff16158015610920575062015180816003015461091d9190611915565b42105b15610957576040517f473382c500000000000000000000000000000000000000000000000000000000815260040160405180910390fd5b60018160060160016101000a81548160ff0219169083151502179055505f816002015490506109e9825f015f9054906101000a900473ffffffffffffffffffffffffffffffffffffffff16827f000000000000000000000000000000000000000000000000000000000000000073ffffffffffffffffffffffffffffffffffffffff166114c89092919063ffffffff16565b815f015f9054906101000a900473ffffffffffffffffffffffffffffffffffffffff1673ffffffffffffffffffffffffffffffffffffffff16837ff3f402280ef0a7905e124aa621b65eaeb2725c343e8b36d398ed78c29daf285c83604051610a5291906117bb565b60405180910390a3505050565b5f60035f8381526020019081526020015f209050806001015f9054906101000a900473ffffffffffffffffffffffffffffffffffffffff1673ffffffffffffffffffffffffffffffffffffffff163373ffffffffffffffffffffffffffffffffffffffff1614610afb576040517fa79e2a2000000000000000000000000000000000000000000000000000000000815260040160405180910390fd5b8060060160019054906101000a900460ff1615610b44576040517f625de58c00000000000000000000000000000000000000000000000000000000815260040160405180910390fd5b806004015f9054906101000a900460ff16610b8b576040517fe40d519000000000000000000000000000000000000000000000000000000000815260040160405180910390fd5b62093a808160050154610b9e9190611915565b421015610bd7576040517f813efc1000000000000000000000000000000000000000000000000000000000815260040160405180910390fd5b60018160060160016101000a81548160ff0219169083151502179055505f81600201549050610c6a826001015f9054906101000a900473ffffffffffffffffffffffffffffffffffffffff16827f000000000000000000000000000000000000000000000000000000000000000073ffffffffffffffffffffffffffffffffffffffff166114c89092919063ffffffff16565b816001015f9054906101000a900473ffffffffffffffffffffffffffffffffffffffff1673ffffffffffffffffffffffffffffffffffffffff16837f664a43da2951e6973c8932df55069f9453e5b29dc499943153b141d564d0c1a183604051610cd491906117bb565b60405180910390a3505050565b7f000000000000000000000000000000000000000000000000000000000000000073ffffffffffffffffffffffffffffffffffffffff163373ffffffffffffffffffffffffffffffffffffffff1614610d66576040517f4755657900000000000000000000000000000000000000000000000000000000815260040160405180910390fd5b5f5f5f6101000a81548160ff0219169083151502179055507f000000000000000000000000000000000000000000000000000000000000000073ffffffffffffffffffffffffffffffffffffffff167f5db9ee0a495bf2e6ff9c91a7834c1ba4fdd244a5e8aa4e537bd38aeae4b073aa60405160405180910390a2565b5f5f9054906101000a900460ff1681565b7f000000000000000000000000000000000000000000000000000000000000000073ffffffffffffffffffffffffffffffffffffffff163373ffffffffffffffffffffffffffffffffffffffff1614610e79576040517f4755657900000000000000000000000000000000000000000000000000000000815260040160405180910390fd5b60015f5f6101000a81548160ff0219169083151502179055507f000000000000000000000000000000000000000000000000000000000000000073ffffffffffffffffffffffffffffffffffffffff167f62e78cea01bee320cd4e420270b5ea74000d11b0c9f74754ebdbfc544b05a25860405160405180910390a2565b8060025f3373ffffffffffffffffffffffffffffffffffffffff1673ffffffffffffffffffffffffffffffffffffffff1681526020019081526020015f20819055503373ffffffffffffffffffffffffffffffffffffffff167fe056f4683b31bd98e115eb4694c7f902ac16f731c6e436caaf808019227421ce82604051610f7f91906117bb565b60405180910390a250565b5f60035f8381526020019081526020015f209050806001015f9054906101000a900473ffffffffffffffffffffffffffffffffffffffff1673ffffffffffffffffffffffffffffffffffffffff163373ffffffffffffffffffffffffffffffffffffffff1614611026576040517fa79e2a2000000000000000000000000000000000000000000000000000000000815260040160405180910390fd5b8060060160019054906101000a900460ff161561106f576040517f625de58c00000000000000000000000000000000000000000000000000000000815260040160405180910390fd5b80600301544210156110ad576040517f3c2779e500000000000000000000000000000000000000000000000000000000815260040160405180910390fd5b806004015f9054906101000a900460ff16156110f5576040517fc0b2979f00000000000000000000000000000000000000000000000000000000815260040160405180910390fd5b806006015f9054906101000a900460ff161561113d576040517f47b9f43700000000000000000000000000000000000000000000000000000000815260040160405180910390fd5b6001816006015f6101000a81548160ff021916908315150217905550817f565b6395281d64c0eb5a463602e5696a1bb3f84d8ca4787b078fa8c4c99b515d60405160405180910390a25050565b6201518081565b60015481565b5f60035f8381526020019081526020015f209050806001015f9054906101000a900473ffffffffffffffffffffffffffffffffffffffff1673ffffffffffffffffffffffffffffffffffffffff163373ffffffffffffffffffffffffffffffffffffffff1614611233576040517fa79e2a2000000000000000000000000000000000000000000000000000000000815260040160405180910390fd5b8060060160019054906101000a900460ff161561127c576040517f625de58c00000000000000000000000000000000000000000000000000000000815260040160405180910390fd5b80600301544210156112ba576040517f3c2779e500000000000000000000000000000000000000000000000000000000815260040160405180910390fd5b6201518081600301546112cd9190611915565b421115611306576040517fda693ca900000000000000000000000000000000000000000000000000000000815260040160405180910390fd5b806006015f9054906101000a900460ff161561134e576040517f47b9f43700000000000000000000000000000000000000000000000000000000815260040160405180910390fd5b806004015f9054906101000a900460ff1615611396576040517f567897b600000000000000000000000000000000000000000000000000000000815260040160405180910390fd5b6001816004015f6101000a81548160ff021916908315150217905550428160050181905550817f5e322af2195868b988e8c48655ae96f072977adc6ad6f2fa30e688841004d83a426040516113eb91906117bb565b60405180910390a25050565b62093a8081565b7f000000000000000000000000000000000000000000000000000000000000000081565b7f000000000000000000000000000000000000000000000000000000000000000081565b6114c2848573ffffffffffffffffffffffffffffffffffffffff166323b872dd86868660405160240161147b93929190611948565b604051602081830303815290604052915060e01b6020820180517bffffffffffffffffffffffffffffffffffffffffffffffffffffffff8381831617835250505050611547565b50505050565b611542838473ffffffffffffffffffffffffffffffffffffffff1663a9059cbb85856040516024016114fb92919061197d565b604051602081830303815290604052915060e01b6020820180517bffffffffffffffffffffffffffffffffffffffffffffffffffffffff8381831617835250505050611547565b505050565b5f5f60205f8451602086015f885af180611566576040513d5f823e3d81fd5b3d92505f519150505f821461157f57600181141561159a565b5f8473ffffffffffffffffffffffffffffffffffffffff163b145b156115dc57836040517f5274afe70000000000000000000000000000000000000000000000000000000081526004016115d391906117ed565b60405180910390fd5b50505050565b5f5ffd5b5f73ffffffffffffffffffffffffffffffffffffffff82169050919050565b5f61160f826115e6565b9050919050565b61161f81611605565b8114611629575f5ffd5b50565b5f8135905061163a81611616565b92915050565b5f819050919050565b61165281611640565b811461165c575f5ffd5b50565b5f8135905061166d81611649565b92915050565b5f5f60408385031215611689576116886115e2565b5b5f6116968582860161162c565b92505060206116a78582860161165f565b9150509250929050565b5f602082840312156116c6576116c56115e2565b5b5f6116d38482850161165f565b91505092915050565b6116e581611605565b82525050565b6116f481611640565b82525050565b5f8115159050919050565b61170e816116fa565b82525050565b5f610100820190506117285f83018b6116dc565b611735602083018a6116dc565b61174260408301896116eb565b61174f60608301886116eb565b61175c6080830187611705565b61176960a08301866116eb565b61177660c0830185611705565b61178360e0830184611705565b9998505050505050505050565b5f602082840312156117a5576117a46115e2565b5b5f6117b28482850161162c565b91505092915050565b5f6020820190506117ce5f8301846116eb565b92915050565b5f6020820190506117e75f830184611705565b92915050565b5f6020820190506118005f8301846116dc565b92915050565b5f819050919050565b5f61182961182461181f846115e6565b611806565b6115e6565b9050919050565b5f61183a8261180f565b9050919050565b5f61184b82611830565b9050919050565b61185b81611841565b82525050565b5f6020820190506118745f830184611852565b92915050565b7f4e487b71000000000000000000000000000000000000000000000000000000005f52601160045260245ffd5b5f6118b182611640565b91507fffffffffffffffffffffffffffffffffffffffffffffffffffffffffffffffff82036118e3576118e261187a565b5b600182019050919050565b5f6040820190506119015f8301856116eb565b61190e60208301846116eb565b9392505050565b5f61191f82611640565b915061192a83611640565b92508282019050808211156119425761194161187a565b5b92915050565b5f60608201905061195b5f8301866116dc565b61196860208301856116dc565b61197560408301846116eb565b949350505050565b5f6040820190506119905f8301856116dc565b61199d60208301846116eb565b939250505056fea264697066735822122068a8875b8c1c9c11e46948abafa43e96d61264903e9a4bc879ad4b8741f6bbae64736f6c634300081e0033","linkReferences":{}},"methodIdentifiers":{"CLAIM_DELAY()":"e18132c4","GRACE_PERIOD()":"c1a287e2","acknowledgeAttendance(uint256)":"a4d52ebc","admin()":"f851a440","bookSession(address,uint256)":"01c7aea4","bookingCounter()":"d287ac42","bookings(uint256)":"1dab301e","claim(uint256)":"379607f5","mentorFee(address)":"26018789","pause()":"8456cb59","paused()":"5c975abb","refund(uint256)":"278ecde1","setMenteeNoShow(uint256)":"dc87c71e","setMentorFee(uint256)":"8869fb88","token()":"fc0c546a","unpause()":"3f4ba83a"},"id":31}